:101C000012C02BC02AC029C028C027C026C025C0AA
:101C100024C023C022C021C020C01FC01EC01DC0C0
:101C20001CC01BC01AC011241FBECFE5D4E0DEBF0C
:101C3000CDBF10E0A0E6B0E0E8EFFFE102C0059004
:101C40000D92A236B107D9F711E0A2E6B0E001C0CB
:101C50001D92AA36B107E1F74BC0D2CFEF92FF92A7
:101C60000F931F93EE24FF2487015F9915C00894FA
:101C7000E11CF11C011D111D81E0E81689E0F80648
:101C80008DE3080780E0180728F0E0916200F091EA
:101C9000630009955F9BEBCF8CB1992787FD9095E9
:101CA0001F910F91FF90EF9008955D9BFECF8CB92F
:101CB0000895D4DF803221F484E1F7DF80E1F5DF9D
:101CC00008950895CF93C82FC9DF803231F484E19D
:101CD000ECDF8C2FEADF80E1E8DFCF910895CF932E
:101CE000882321F0C82FBADFC150E9F7CF910895BA
:101CF000CFE5D4E0DEBFCDBF000010BC89E189B9DB
:101D000088E18AB986E880BDBD9A1092680130E208
:101D10002FE088B3832788BB80E090E00197F1F73C
:101D2000215027FFF6CF20E12093680197DF803311
:101D300009F444C08133A1F491DFC82F8032B1F798
:101D400084E1B3DF81E4B1DF86E5AFDF82E5ADDFBB
:101D50008C2FABDF89E4A9DF83E5A7DF80E52EC107
:101D6000803429F47BDF863848F178DF27C081345E
:101D700071F474DF803811F482E028C1813811F4E5
:101D800081E024C1823809F020C182E11FC1823480
:101D900011F484E103C0853419F485E0A0DF0EC09E
:101DA000803561F0813551F0823541F0853541F45F
:101DB00055DF8093640052DF809365007ADFB6CFF1
:101DC000863519F484E08BDF00C1843609F09CC0AD
:101DD00045DF8093670142DF80936601809169014E
:101DE0008E7F809369013ADF853429F480916901FF
:101DF000816080936901C0E0D0E08091660190919C
:101E00006701C817D90770F406E610E027DFF8016C
:101E100081938F0121968091660190916701C81787
:101E2000D907A0F31BDF803209F080CF80916901D0
:101E300080FF25C0C0E0D0E08091660190916701ED
:101E4000C817D90708F05EC0E6E6F0E0A09164008C
:101E5000B09165008191082EC3D08091640090916B
:101E600065000196909365008093640021968091AF
:101E7000660190916701C817D90740F343C0F894F1
:101E8000E199FECF1127E0916400F0916500EE0F1B
:101E9000FF1FC6E6D0E0809166019091670180FF48
:101EA00001C00196103051F422D003E00093570096
:101EB000E8951DD001E100935700E895099019902D
:101EC00016D001E000935700E8951395103258F0B2
:101ED00011270DD005E000935700E89508D001E1E7
:101EE00000935700E8953296029739F0DBCF0091C6
:101EF000570001700130D9F30895103011F00296A7
:101F0000E7CF112484E15AC0843709F04AC0A6DE25
:101F100080936701A3DE80936601A0DE9091690142
:101F2000853421F49160909369010DC09E7F909358
:101F300069018091640090916500880F991F9093CA
:101F40006500809364008ADE803209F0EFCE84E180
:101F5000ACDEC0E0D0E08091660190916701C817C7
:101F6000D90768F58091690180FF07C0A0916400DE
:101F7000B09165002DD0802D08C0869580FD06C0EB
:101F8000E0916400F091650084918FDE809164009F
:101F9000909165000196909365008093640021966E
:101FA000DACF853779F45ADE803209F0BFCE84E18A
:101FB0007CDE8EE17ADE83E978DE87E076DE80E122
:101FC00074DEB4CE863709F0B1CE80E07BDEAECED3
:101FD000E199FECFBFBBAEBBE09A11960DB208955A
:101FE000E199FECFBFBBAEBB0DBA11960FB6F89408
:081FF000E29AE19A0FBE089588
:021FF800800067
:0400000300001C00DD
:00000001FF
